{
  "contractName": "KigaToken",
  "abi": [
    {
      "inputs": [],
      "stateMutability": "nonpayable",
      "type": "constructor"
    },
    {
      "anonymous": false,
      "inputs": [
        {
          "indexed": true,
          "internalType": "address",
          "name": "owner",
          "type": "address"
        },
        {
          "indexed": true,
          "internalType": "address",
          "name": "spender",
          "type": "address"
        },
        {
          "indexed": false,
          "internalType": "uint256",
          "name": "value",
          "type": "uint256"
        }
      ],
      "name": "Approval",
      "type": "event"
    },
    {
      "anonymous": false,
      "inputs": [
        {
          "indexed": true,
          "internalType": "bytes32",
          "name": "role",
          "type": "bytes32"
        },
        {
          "indexed": true,
          "internalType": "bytes32",
          "name": "previousAdminRole",
          "type": "bytes32"
        },
        {
          "indexed": true,
          "internalType": "bytes32",
          "name": "newAdminRole",
          "type": "bytes32"
        }
      ],
      "name": "RoleAdminChanged",
      "type": "event"
    },
    {
      "anonymous": false,
      "inputs": [
        {
          "indexed": true,
          "internalType": "bytes32",
          "name": "role",
          "type": "bytes32"
        },
        {
          "indexed": true,
          "internalType": "address",
          "name": "account",
          "type": "address"
        },
        {
          "indexed": true,
          "internalType": "address",
          "name": "sender",
          "type": "address"
        }
      ],
      "name": "RoleGranted",
      "type": "event"
    },
    {
      "anonymous": false,
      "inputs": [
        {
          "indexed": true,
          "internalType": "bytes32",
          "name": "role",
          "type": "bytes32"
        },
        {
          "indexed": true,
          "internalType": "address",
          "name": "account",
          "type": "address"
        },
        {
          "indexed": true,
          "internalType": "address",
          "name": "sender",
          "type": "address"
        }
      ],
      "name": "RoleRevoked",
      "type": "event"
    },
    {
      "anonymous": false,
      "inputs": [
        {
          "indexed": true,
          "internalType": "address",
          "name": "from",
          "type": "address"
        },
        {
          "indexed": true,
          "internalType": "address",
          "name": "to",
          "type": "address"
        },
        {
          "indexed": false,
          "internalType": "uint256",
          "name": "value",
          "type": "uint256"
        }
      ],
      "name": "Transfer",
      "type": "event"
    },
    {
      "inputs": [],
      "name": "BURNER_ROLE",
      "outputs": [
        {
          "internalType": "bytes32",
          "name": "",
          "type": "bytes32"
        }
      ],
      "stateMutability": "view",
      "type": "function",
      "constant": true
    },
    {
      "inputs": [],
      "name": "DEFAULT_ADMIN_ROLE",
      "outputs": [
        {
          "internalType": "bytes32",
          "name": "",
          "type": "bytes32"
        }
      ],
      "stateMutability": "view",
      "type": "function",
      "constant": true
    },
    {
      "inputs": [],
      "name": "INITIAL_SUPPLY",
      "outputs": [
        {
          "internalType": "uint256",
          "name": "",
          "type": "uint256"
        }
      ],
      "stateMutability": "view",
      "type": "function",
      "constant": true
    },
    {
      "inputs": [],
      "name": "MINTER_ROLE",
      "outputs": [
        {
          "internalType": "bytes32",
          "name": "",
          "type": "bytes32"
        }
      ],
      "stateMutability": "view",
      "type": "function",
      "constant": true
    },
    {
      "inputs": [
        {
          "internalType": "address",
          "name": "owner",
          "type": "address"
        },
        {
          "internalType": "address",
          "name": "spender",
          "type": "address"
        }
      ],
      "name": "allowance",
      "outputs": [
        {
          "internalType": "uint256",
          "name": "",
          "type": "uint256"
        }
      ],
      "stateMutability": "view",
      "type": "function",
      "constant": true
    },
    {
      "inputs": [
        {
          "internalType": "address",
          "name": "spender",
          "type": "address"
        },
        {
          "internalType": "uint256",
          "name": "amount",
          "type": "uint256"
        }
      ],
      "name": "approve",
      "outputs": [
        {
          "internalType": "bool",
          "name": "",
          "type": "bool"
        }
      ],
      "stateMutability": "nonpayable",
      "type": "function"
    },
    {
      "inputs": [
        {
          "internalType": "address",
          "name": "account",
          "type": "address"
        }
      ],
      "name": "balanceOf",
      "outputs": [
        {
          "internalType": "uint256",
          "name": "",
          "type": "uint256"
        }
      ],
      "stateMutability": "view",
      "type": "function",
      "constant": true
    },
    {
      "inputs": [],
      "name": "decimals",
      "outputs": [
        {
          "internalType": "uint8",
          "name": "",
          "type": "uint8"
        }
      ],
      "stateMutability": "view",
      "type": "function",
      "constant": true
    },
    {
      "inputs": [
        {
          "internalType": "address",
          "name": "spender",
          "type": "address"
        },
        {
          "internalType": "uint256",
          "name": "subtractedValue",
          "type": "uint256"
        }
      ],
      "name": "decreaseAllowance",
      "outputs": [
        {
          "internalType": "bool",
          "name": "",
          "type": "bool"
        }
      ],
      "stateMutability": "nonpayable",
      "type": "function"
    },
    {
      "inputs": [
        {
          "internalType": "bytes32",
          "name": "role",
          "type": "bytes32"
        }
      ],
      "name": "getRoleAdmin",
      "outputs": [
        {
          "internalType": "bytes32",
          "name": "",
          "type": "bytes32"
        }
      ],
      "stateMutability": "view",
      "type": "function",
      "constant": true
    },
    {
      "inputs": [
        {
          "internalType": "bytes32",
          "name": "role",
          "type": "bytes32"
        },
        {
          "internalType": "address",
          "name": "account",
          "type": "address"
        }
      ],
      "name": "grantRole",
      "outputs": [],
      "stateMutability": "nonpayable",
      "type": "function"
    },
    {
      "inputs": [
        {
          "internalType": "bytes32",
          "name": "role",
          "type": "bytes32"
        },
        {
          "internalType": "address",
          "name": "account",
          "type": "address"
        }
      ],
      "name": "hasRole",
      "outputs": [
        {
          "internalType": "bool",
          "name": "",
          "type": "bool"
        }
      ],
      "stateMutability": "view",
      "type": "function",
      "constant": true
    },
    {
      "inputs": [
        {
          "internalType": "address",
          "name": "spender",
          "type": "address"
        },
        {
          "internalType": "uint256",
          "name": "addedValue",
          "type": "uint256"
        }
      ],
      "name": "increaseAllowance",
      "outputs": [
        {
          "internalType": "bool",
          "name": "",
          "type": "bool"
        }
      ],
      "stateMutability": "nonpayable",
      "type": "function"
    },
    {
      "inputs": [],
      "name": "name",
      "outputs": [
        {
          "internalType": "string",
          "name": "",
          "type": "string"
        }
      ],
      "stateMutability": "view",
      "type": "function",
      "constant": true
    },
    {
      "inputs": [
        {
          "internalType": "bytes32",
          "name": "role",
          "type": "bytes32"
        },
        {
          "internalType": "address",
          "name": "account",
          "type": "address"
        }
      ],
      "name": "renounceRole",
      "outputs": [],
      "stateMutability": "nonpayable",
      "type": "function"
    },
    {
      "inputs": [
        {
          "internalType": "bytes32",
          "name": "role",
          "type": "bytes32"
        },
        {
          "internalType": "address",
          "name": "account",
          "type": "address"
        }
      ],
      "name": "revokeRole",
      "outputs": [],
      "stateMutability": "nonpayable",
      "type": "function"
    },
    {
      "inputs": [
        {
          "internalType": "bytes4",
          "name": "interfaceId",
          "type": "bytes4"
        }
      ],
      "name": "supportsInterface",
      "outputs": [
        {
          "internalType": "bool",
          "name": "",
          "type": "bool"
        }
      ],
      "stateMutability": "view",
      "type": "function",
      "constant": true
    },
    {
      "inputs": [],
      "name": "symbol",
      "outputs": [
        {
          "internalType": "string",
          "name": "",
          "type": "string"
        }
      ],
      "stateMutability": "view",
      "type": "function",
      "constant": true
    },
    {
      "inputs": [],
      "name": "totalSupply",
      "outputs": [
        {
          "internalType": "uint256",
          "name": "",
          "type": "uint256"
        }
      ],
      "stateMutability": "view",
      "type": "function",
      "constant": true
    },
    {
      "inputs": [
        {
          "internalType": "address",
          "name": "to",
          "type": "address"
        },
        {
          "internalType": "uint256",
          "name": "amount",
          "type": "uint256"
        }
      ],
      "name": "transfer",
      "outputs": [
        {
          "internalType": "bool",
          "name": "",
          "type": "bool"
        }
      ],
      "stateMutability": "nonpayable",
      "type": "function"
    },
    {
      "inputs": [
        {
          "internalType": "address",
          "name": "from",
          "type": "address"
        },
        {
          "internalType": "address",
          "name": "to",
          "type": "address"
        },
        {
          "internalType": "uint256",
          "name": "amount",
          "type": "uint256"
        }
      ],
      "name": "transferFrom",
      "outputs": [
        {
          "internalType": "bool",
          "name": "",
          "type": "bool"
        }
      ],
      "stateMutability": "nonpayable",
      "type": "function"
    },
    {
      "inputs": [
        {
          "internalType": "address",
          "name": "_to",
          "type": "address"
        },
        {
          "internalType": "uint256",
          "name": "_amount",
          "type": "uint256"
        }
      ],
      "name": "mint",
      "outputs": [],
      "stateMutability": "nonpayable",
      "type": "function"
    },
    {
      "inputs": [
        {
          "internalType": "address",
          "name": "_from",
          "type": "address"
        },
        {
          "internalType": "uint256",
          "name": "_amount",
          "type": "uint256"
        }
      ],
      "name": "burn",
      "outputs": [],
      "stateMutability": "nonpayable",
      "type": "function"
    },
    {
      "inputs": [
        {
          "internalType": "address",
          "name": "_to",
          "type": "address"
        },
        {
          "internalType": "uint256",
          "name": "_amount",
          "type": "uint256"
        },
        {
          "internalType": "uint256",
          "name": "_releaseTime",
          "type": "uint256"
        }
      ],
      "name": "mintTimeLocked",
      "outputs": [
        {
          "internalType": "contract TokenTimelock",
          "name": "",
          "type": "address"
        }
      ],
      "stateMutability": "nonpayable",
      "type": "function"
    }
  ],
  "bytecode": "0x60806040526304c4b40060065533600760006101000a81548173ffffffffffffffffffffffffffffffffffffffff021916908373ffffffffffffffffffffffffffffffffffffffff16021790555033600860006101000a81548173ffffffffffffffffffffffffffffffffffffffff021916908373ffffffffffffffffffffffffffffffffffffffff1602179055503480156200009b57600080fd5b506040518060400160405280600981526020017f4b696761546f6b656e00000000000000000000000000000000000000000000008152506040518060400160405280600381526020017f4b475400000000000000000000000000000000000000000000000000000000008152508160039080519060200190620001209291906200049e565b508060049080519060200190620001399291906200049e565b505050620001516000801b336200019860201b60201c565b620001923362000166620001ae60201b60201c565b60ff16600a620001779190620006db565b6006546200018691906200072c565b620001b760201b60201c565b620008ff565b620001aa82826200032f60201b60201c565b5050565b60006012905090565b600073ffffffffffffffffffffffffffffffffffffffff168273ffffffffffffffffffffffffffffffffffffffff160362000229576040517f08c379a00000000000000000000000000000000000000000000000000000000081526004016200022090620007ee565b60405180910390fd5b6200023d600083836200042160201b60201c565b806002600082825462000251919062000810565b92505081905550806000808473ffffffffffffffffffffffffffffffffffffffff1673ffffffffffffffffffffffffffffffffffffffff1681526020019081526020016000206000828254620002a8919062000810565b925050819055508173ffffffffffffffffffffffffffffffffffffffff16600073ffffffffffffffffffffffffffffffffffffffff167fddf252ad1be2c89b69c2b068fc378daa952ba7f163c4a11628f55a4df523b3ef836040516200030f91906200087e565b60405180910390a36200032b600083836200042660201b60201c565b5050565b6200034182826200042b60201b60201c565b6200041d5760016005600084815260200190815260200160002060000160008373ffffffffffffffffffffffffffffffffffffffff1673ffffffffffffffffffffffffffffffffffffffff16815260200190815260200160002060006101000a81548160ff021916908315150217905550620003c26200049660201b60201c565b73ffffffffffffffffffffffffffffffffffffffff168173ffffffffffffffffffffffffffffffffffffffff16837f2f8788117e7eff1d82e926ec794901d17c78024a50270940304540a733656f0d60405160405180910390a45b5050565b505050565b505050565b60006005600084815260200190815260200160002060000160008373ffffffffffffffffffffffffffffffffffffffff1673ffffffffffffffffffffffffffffffffffffffff16815260200190815260200160002060009054906101000a900460ff16905092915050565b600033905090565b828054620004ac90620008ca565b90600052602060002090601f016020900481019282620004d057600085556200051c565b82601f10620004eb57805160ff19168380011785556200051c565b828001600101855582156200051c579182015b828111156200051b578251825591602001919060010190620004fe565b5b5090506200052b91906200052f565b5090565b5b808211156200054a57600081600090555060010162000530565b5090565b7f4e487b7100000000000000000000000000000000000000000000000000000000600052601160045260246000fd5b60008160011c9050919050565b6000808291508390505b6001851115620005dc57808604811115620005b457620005b36200054e565b5b6001851615620005c45780820291505b8081029050620005d4856200057d565b945062000594565b94509492505050565b600082620005f75760019050620006ca565b81620006075760009050620006ca565b81600181146200062057600281146200062b5762000661565b6001915050620006ca565b60ff84111562000640576200063f6200054e565b5b8360020a9150848211156200065a57620006596200054e565b5b50620006ca565b5060208310610133831016604e8410600b84101617156200069b5782820a9050838111156200069557620006946200054e565b5b620006ca565b620006aa84848460016200058a565b92509050818404811115620006c457620006c36200054e565b5b81810290505b9392505050565b6000819050919050565b6000620006e882620006d1565b9150620006f583620006d1565b9250620007247fffffffffffffffffffffffffffffffffffffffffffffffffffffffffffffffff8484620005e5565b905092915050565b60006200073982620006d1565b91506200074683620006d1565b9250817fffffffffffffffffffffffffffffffffffffffffffffffffffffffffffffffff04831182151516156200078257620007816200054e565b5b828202905092915050565b600082825260208201905092915050565b7f45524332303a206d696e7420746f20746865207a65726f206164647265737300600082015250565b6000620007d6601f836200078d565b9150620007e3826200079e565b602082019050919050565b600060208201905081810360008301526200080981620007c7565b9050919050565b60006200081d82620006d1565b91506200082a83620006d1565b9250827fffffffffffffffffffffffffffffffffffffffffffffffffffffffffffffffff038211156200086257620008616200054e565b5b828201905092915050565b6200087881620006d1565b82525050565b60006020820190506200089560008301846200086d565b92915050565b7f4e487b7100000000000000000000000000000000000000000000000000000000600052602260045260246000fd5b60006002820490506001821680620008e357607f821691505b602082108103620008f957620008f86200089b565b5b50919050565b61395e806200090f6000396000f3fe60806040523480156200001157600080fd5b5060043610620001785760003560e01c806340c10f1911620000d5578063a457c2d71162000087578063a457c2d71462000465578063a9059cbb146200049b578063b762e6e814620004d1578063d53913931462000507578063d547741f1462000529578063dd62ed3e14620005495762000178565b806340c10f19146200037557806370a08231146200039557806391d1485414620003cb57806395d89b4114620004015780639dc29fac1462000423578063a217fddf14620004435762000178565b8063282c51f3116200012f578063282c51f314620002995780632f2ff15d14620002bb5780632ff2e9dc14620002db578063313ce56714620002fd57806336568abe146200031f57806339509351146200033f5762000178565b806301ffc9a7146200017d57806306fdde0314620001b3578063095ea7b314620001d557806318160ddd146200020b57806323b872dd146200022d578063248a9ca31462000263575b600080fd5b6200019b600480360381019062000195919062001b22565b6200057f565b604051620001aa919062001b71565b60405180910390f35b620001bd620005fc565b604051620001cc919062001c32565b60405180910390f35b620001f36004803603810190620001ed919062001cf6565b62000696565b60405162000202919062001b71565b60405180910390f35b62000215620006bd565b60405162000224919062001d4e565b60405180910390f35b6200024b600480360381019062000245919062001d6b565b620006c7565b6040516200025a919062001b71565b60405180910390f35b6200028160048036038101906200027b919062001e02565b620006fc565b60405162000290919062001e45565b60405180910390f35b620002a36200071c565b604051620002b2919062001e45565b60405180910390f35b620002d96004803603810190620002d3919062001e62565b62000740565b005b620002e562000771565b604051620002f4919062001d4e565b60405180910390f35b6200030762000777565b60405162000316919062001ec7565b60405180910390f35b6200033d600480360381019062000337919062001e62565b62000780565b005b6200035d600480360381019062000357919062001cf6565b6200080a565b6040516200036c919062001b71565b60405180910390f35b6200039360048036038101906200038d919062001cf6565b620008ba565b005b620003b36004803603810190620003ad919062001ee4565b62000901565b604051620003c2919062001d4e565b60405180910390f35b620003e96004803603810190620003e3919062001e62565b62000949565b604051620003f8919062001b71565b60405180910390f35b6200040b620009b4565b6040516200041a919062001c32565b60405180910390f35b6200044160048036038101906200043b919062001cf6565b62000a4e565b005b6200044d62000a95565b6040516200045c919062001e45565b60405180910390f35b6200048360048036038101906200047d919062001cf6565b62000a9c565b60405162000492919062001b71565b60405180910390f35b620004b96004803603810190620004b3919062001cf6565b62000b8d565b604051620004c8919062001b71565b60405180910390f35b620004ef6004803603810190620004e9919062001f16565b62000bb4565b604051620004fe919062001fdd565b60405180910390f35b6200051162000c45565b60405162000520919062001e45565b60405180910390f35b62000547600480360381019062000541919062001e62565b62000c69565b005b62000567600480360381019062000561919062001ffa565b62000c9a565b60405162000576919062001d4e565b60405180910390f35b60007f7965db0b000000000000000000000000000000000000000000000000000000007bffffffffffffffffffffffffffffffffffffffffffffffffffffffff1916827bffffffffffffffffffffffffffffffffffffffffffffffffffffffff19161480620005f55750620005f48262000d21565b5b9050919050565b6060600380546200060d9062002070565b80601f01602080910402602001604051908101604052809291908181526020018280546200063b9062002070565b80156200068c5780601f1062000660576101008083540402835291602001916200068c565b820191906000526020600020905b8154815290600101906020018083116200066e57829003601f168201915b5050505050905090565b600080620006a362000d8b565b9050620006b281858562000d93565b600191505092915050565b6000600254905090565b600080620006d462000d8b565b9050620006e385828562000f64565b620006f085858562000ff8565b60019150509392505050565b600060056000838152602001908152602001600020600101549050919050565b7f3c11d16cbaffd01df69ce1c404f6340ee057498f5f00246190ea54220576a84881565b6200074b82620006fc565b62000760816200075a62000d8b565b62001288565b6200076c838362001330565b505050565b60065481565b60006012905090565b6200078a62000d8b565b73ffffffffffffffffffffffffffffffffffffffff168173ffffffffffffffffffffffffffffffffffffffff1614620007fa576040517f08c379a0000000000000000000000000000000000000000000000000000000008152600401620007f1906200211b565b60405180910390fd5b62000806828262001416565b5050565b6000806200081762000d8b565b9050620008af818585600160008673ffffffffffffffffffffffffffffffffffffffff1673ffffffffffffffffffffffffffffffffffffffff16815260200190815260200160002060008973ffffffffffffffffffffffffffffffffffffffff1673ffffffffffffffffffffffffffffffffffffffff16815260200190815260200160002054620008a991906200216c565b62000d93565b600191505092915050565b7f9f2df0fed2c77648de5860a4cc508cd0818c85b8b8a1ab4ceeef8d981c8956a6620008f081620008ea62000d8b565b62001288565b620008fc8383620014fd565b505050565b60008060008373ffffffffffffffffffffffffffffffffffffffff1673ffffffffffffffffffffffffffffffffffffffff168152602001908152602001600020549050919050565b60006005600084815260200190815260200160002060000160008373ffffffffffffffffffffffffffffffffffffffff1673ffffffffffffffffffffffffffffffffffffffff16815260200190815260200160002060009054906101000a900460ff16905092915050565b606060048054620009c59062002070565b80601f0160208091040260200160405190810160405280929190818152602001828054620009f39062002070565b801562000a445780601f1062000a185761010080835404028352916020019162000a44565b820191906000526020600020905b81548152906001019060200180831162000a2657829003601f168201915b5050505050905090565b7f3c11d16cbaffd01df69ce1c404f6340ee057498f5f00246190ea54220576a84862000a848162000a7e62000d8b565b62001288565b62000a90838362001669565b505050565b6000801b81565b60008062000aa962000d8b565b90506000600160008373ffffffffffffffffffffffffffffffffffffffff1673ffffffffffffffffffffffffffffffffffffffff16815260200190815260200160002060008673ffffffffffffffffffffffffffffffffffffffff1673ffffffffffffffffffffffffffffffffffffffff1681526020019081526020016000205490508381101562000b72576040517f08c379a000000000000000000000000000000000000000000000000000000000815260040162000b69906200223f565b60405180910390fd5b62000b81828686840362000d93565b60019250505092915050565b60008062000b9a62000d8b565b905062000ba981858562000ff8565b600191505092915050565b60007f9f2df0fed2c77648de5860a4cc508cd0818c85b8b8a1ab4ceeef8d981c8956a662000bec8162000be662000d8b565b62001288565b600030868560405162000bff9062001ab2565b62000c0d9392919062002297565b604051809103906000f08015801562000c2a573d6000803e3d6000fd5b50905062000c398186620008ba565b80925050509392505050565b7f9f2df0fed2c77648de5860a4cc508cd0818c85b8b8a1ab4ceeef8d981c8956a681565b62000c7482620006fc565b62000c898162000c8362000d8b565b62001288565b62000c95838362001416565b505050565b6000600160008473ffffffffffffffffffffffffffffffffffffffff1673ffffffffffffffffffffffffffffffffffffffff16815260200190815260200160002060008373ffffffffffffffffffffffffffffffffffffffff1673ffffffffffffffffffffffffffffffffffffffff16815260200190815260200160002054905092915050565b60007f01ffc9a7000000000000000000000000000000000000000000000000000000007bffffffffffffffffffffffffffffffffffffffffffffffffffffffff1916827bffffffffffffffffffffffffffffffffffffffffffffffffffffffff1916149050919050565b600033905090565b600073ffffffffffffffffffffffffffffffffffffffff168373ffffffffffffffffffffffffffffffffffffffff160362000e05576040517f08c379a000000000000000000000000000000000000000000000000000000000815260040162000dfc906200234a565b60405180910390fd5b600073ffffffffffffffffffffffffffffffffffffffff168273ffffffffffffffffffffffffffffffffffffffff160362000e77576040517f08c379a000000000000000000000000000000000000000000000000000000000815260040162000e6e90620023e2565b60405180910390fd5b80600160008573ffffffffffffffffffffffffffffffffffffffff1673ffffffffffffffffffffffffffffffffffffffff16815260200190815260200160002060008473ffffffffffffffffffffffffffffffffffffffff1673ffffffffffffffffffffffffffffffffffffffff168152602001908152602001600020819055508173ffffffffffffffffffffffffffffffffffffffff168373ffffffffffffffffffffffffffffffffffffffff167f8c5be1e5ebec7d5bd14f71427d1e84f3dd0314c0f7b2291e5b200ac8c7c3b9258360405162000f57919062001d4e565b60405180910390a3505050565b600062000f72848462000c9a565b90507fffffffffffffffffffffffffffffffffffffffffffffffffffffffffffffffff811462000ff2578181101562000fe2576040517f08c379a000000000000000000000000000000000000000000000000000000000815260040162000fd99062002454565b60405180910390fd5b62000ff1848484840362000d93565b5b50505050565b600073ffffffffffffffffffffffffffffffffffffffff168373ffffffffffffffffffffffffffffffffffffffff16036200106a576040517f08c379a00000000000000000000000000000000000000000000000000000000081526004016200106190620024ec565b60405180910390fd5b600073ffffffffffffffffffffffffffffffffffffffff168273ffffffffffffffffffffffffffffffffffffffff1603620010dc576040517f08c379a0000000000000000000000000000000000000000000000000000000008152600401620010d39062002584565b60405180910390fd5b620010e98383836200184d565b60008060008573ffffffffffffffffffffffffffffffffffffffff1673ffffffffffffffffffffffffffffffffffffffff1681526020019081526020016000205490508181101562001172576040517f08c379a000000000000000000000000000000000000000000000000000000000815260040162001169906200261c565b60405180910390fd5b8181036000808673ffffffffffffffffffffffffffffffffffffffff1673ffffffffffffffffffffffffffffffffffffffff16815260200190815260200160002081905550816000808573ffffffffffffffffffffffffffffffffffffffff1673ffffffffffffffffffffffffffffffffffffffff16815260200190815260200160002060008282546200120791906200216c565b925050819055508273ffffffffffffffffffffffffffffffffffffffff168473ffffffffffffffffffffffffffffffffffffffff167fddf252ad1be2c89b69c2b068fc378daa952ba7f163c4a11628f55a4df523b3ef846040516200126d919062001d4e565b60405180910390a36200128284848462001852565b50505050565b62001294828262000949565b6200132c57620012bc8173ffffffffffffffffffffffffffffffffffffffff16601462001857565b620012cc8360001c602062001857565b604051602001620012df92919062002720565b6040516020818303038152906040526040517f08c379a000000000000000000000000000000000000000000000000000000000815260040162001323919062001c32565b60405180910390fd5b5050565b6200133c828262000949565b620014125760016005600084815260200190815260200160002060000160008373ffffffffffffffffffffffffffffffffffffffff1673ffffffffffffffffffffffffffffffffffffffff16815260200190815260200160002060006101000a81548160ff021916908315150217905550620013b762000d8b565b73ffffffffffffffffffffffffffffffffffffffff168173ffffffffffffffffffffffffffffffffffffffff16837f2f8788117e7eff1d82e926ec794901d17c78024a50270940304540a733656f0d60405160405180910390a45b5050565b62001422828262000949565b15620014f95760006005600084815260200190815260200160002060000160008373ffffffffffffffffffffffffffffffffffffffff1673ffffffffffffffffffffffffffffffffffffffff16815260200190815260200160002060006101000a81548160ff0219169083151502179055506200149e62000d8b565b73ffffffffffffffffffffffffffffffffffffffff168173ffffffffffffffffffffffffffffffffffffffff16837ff6391f5c32d9c69d2a47ea670b442974b53935d1edc7fd64eb21e047a839171b60405160405180910390a45b5050565b600073ffffffffffffffffffffffffffffffffffffffff168273ffffffffffffffffffffffffffffffffffffffff16036200156f576040517f08c379a00000000000000000000000000000000000000000000000000000000081526004016200156690620027b2565b60405180910390fd5b6200157d600083836200184d565b80600260008282546200159191906200216c565b92505081905550806000808473ffffffffffffffffffffffffffffffffffffffff1673ffffffffffffffffffffffffffffffffffffffff1681526020019081526020016000206000828254620015e891906200216c565b925050819055508173ffffffffffffffffffffffffffffffffffffffff16600073ffffffffffffffffffffffffffffffffffffffff167fddf252ad1be2c89b69c2b068fc378daa952ba7f163c4a11628f55a4df523b3ef836040516200164f919062001d4e565b60405180910390a3620016656000838362001852565b5050565b600073ffffffffffffffffffffffffffffffffffffffff168273ffffffffffffffffffffffffffffffffffffffff1603620016db576040517f08c379a0000000000000000000000000000000000000000000000000000000008152600401620016d2906200284a565b60405180910390fd5b620016e9826000836200184d565b60008060008473ffffffffffffffffffffffffffffffffffffffff1673ffffffffffffffffffffffffffffffffffffffff1681526020019081526020016000205490508181101562001772576040517f08c379a00000000000000000000000000000000000000000000000000000000081526004016200176990620028e2565b60405180910390fd5b8181036000808573ffffffffffffffffffffffffffffffffffffffff1673ffffffffffffffffffffffffffffffffffffffff168152602001908152602001600020819055508160026000828254620017cb919062002904565b92505081905550600073ffffffffffffffffffffffffffffffffffffffff168373ffffffffffffffffffffffffffffffffffffffff167fddf252ad1be2c89b69c2b068fc378daa952ba7f163c4a11628f55a4df523b3ef8460405162001832919062001d4e565b60405180910390a3620018488360008462001852565b505050565b505050565b505050565b6060600060028360026200186c91906200293f565b6200187891906200216c565b67ffffffffffffffff811115620018945762001893620029a0565b5b6040519080825280601f01601f191660200182016040528015620018c75781602001600182028036833780820191505090505b5090507f300000000000000000000000000000000000000000000000000000000000000081600081518110620019025762001901620029cf565b5b60200101907effffffffffffffffffffffffffffffffffffffffffffffffffffffffffffff1916908160001a9053507f780000000000000000000000000000000000000000000000000000000000000081600181518110620019695762001968620029cf565b5b60200101907effffffffffffffffffffffffffffffffffffffffffffffffffffffffffffff1916908160001a90535060006001846002620019ab91906200293f565b620019b791906200216c565b90505b600181111562001a61577f3031323334353637383961626364656600000000000000000000000000000000600f861660108110620019fd57620019fc620029cf565b5b1a60f81b82828151811062001a175762001a16620029cf565b5b60200101907effffffffffffffffffffffffffffffffffffffffffffffffffffffffffffff1916908160001a905350600485901c94508062001a5990620029fe565b9050620019ba565b506000841462001aa8576040517f08c379a000000000000000000000000000000000000000000000000000000000815260040162001a9f9062002a7c565b60405180910390fd5b8091505092915050565b610e8a8062002a9f83390190565b600080fd5b60007fffffffff0000000000000000000000000000000000000000000000000000000082169050919050565b62001afc8162001ac5565b811462001b0857600080fd5b50565b60008135905062001b1c8162001af1565b92915050565b60006020828403121562001b3b5762001b3a62001ac0565b5b600062001b4b8482850162001b0b565b91505092915050565b60008115159050919050565b62001b6b8162001b54565b82525050565b600060208201905062001b88600083018462001b60565b92915050565b600081519050919050565b600082825260208201905092915050565b60005b8381101562001bca57808201518184015260208101905062001bad565b8381111562001bda576000848401525b50505050565b6000601f19601f8301169050919050565b600062001bfe8262001b8e565b62001c0a818562001b99565b935062001c1c81856020860162001baa565b62001c278162001be0565b840191505092915050565b6000602082019050818103600083015262001c4e818462001bf1565b905092915050565b600073ffffffffffffffffffffffffffffffffffffffff82169050919050565b600062001c838262001c56565b9050919050565b62001c958162001c76565b811462001ca157600080fd5b50565b60008135905062001cb58162001c8a565b92915050565b6000819050919050565b62001cd08162001cbb565b811462001cdc57600080fd5b50565b60008135905062001cf08162001cc5565b92915050565b6000806040838503121562001d105762001d0f62001ac0565b5b600062001d208582860162001ca4565b925050602062001d338582860162001cdf565b9150509250929050565b62001d488162001cbb565b82525050565b600060208201905062001d65600083018462001d3d565b92915050565b60008060006060848603121562001d875762001d8662001ac0565b5b600062001d978682870162001ca4565b935050602062001daa8682870162001ca4565b925050604062001dbd8682870162001cdf565b9150509250925092565b6000819050919050565b62001ddc8162001dc7565b811462001de857600080fd5b50565b60008135905062001dfc8162001dd1565b92915050565b60006020828403121562001e1b5762001e1a62001ac0565b5b600062001e2b8482850162001deb565b91505092915050565b62001e3f8162001dc7565b82525050565b600060208201905062001e5c600083018462001e34565b92915050565b6000806040838503121562001e7c5762001e7b62001ac0565b5b600062001e8c8582860162001deb565b925050602062001e9f8582860162001ca4565b9150509250929050565b600060ff82169050919050565b62001ec18162001ea9565b82525050565b600060208201905062001ede600083018462001eb6565b92915050565b60006020828403121562001efd5762001efc62001ac0565b5b600062001f0d8482850162001ca4565b91505092915050565b60008060006060848603121562001f325762001f3162001ac0565b5b600062001f428682870162001ca4565b935050602062001f558682870162001cdf565b925050604062001f688682870162001cdf565b9150509250925092565b6000819050919050565b600062001f9d62001f9762001f918462001c56565b62001f72565b62001c56565b9050919050565b600062001fb18262001f7c565b9050919050565b600062001fc58262001fa4565b9050919050565b62001fd78162001fb8565b82525050565b600060208201905062001ff4600083018462001fcc565b92915050565b6000806040838503121562002014576200201362001ac0565b5b6000620020248582860162001ca4565b9250506020620020378582860162001ca4565b9150509250929050565b7f4e487b7100000000000000000000000000000000000000000000000000000000600052602260045260246000fd5b600060028204905060018216806200208957607f821691505b6020821081036200209f576200209e62002041565b5b50919050565b7f416363657373436f6e74726f6c3a2063616e206f6e6c792072656e6f756e636560008201527f20726f6c657320666f722073656c660000000000000000000000000000000000602082015250565b600062002103602f8362001b99565b91506200211082620020a5565b604082019050919050565b600060208201905081810360008301526200213681620020f4565b9050919050565b7f4e487b7100000000000000000000000000000000000000000000000000000000600052601160045260246000fd5b6000620021798262001cbb565b9150620021868362001cbb565b9250827fffffffffffffffffffffffffffffffffffffffffffffffffffffffffffffffff03821115620021be57620021bd6200213d565b5b828201905092915050565b7f45524332303a2064656372656173656420616c6c6f77616e63652062656c6f7760008201527f207a65726f000000000000000000000000000000000000000000000000000000602082015250565b60006200222760258362001b99565b91506200223482620021c9565b604082019050919050565b600060208201905081810360008301526200225a8162002218565b9050919050565b60006200226e8262001fa4565b9050919050565b620022808162002261565b82525050565b620022918162001c76565b82525050565b6000606082019050620022ae600083018662002275565b620022bd602083018562002286565b620022cc604083018462001d3d565b949350505050565b7f45524332303a20617070726f76652066726f6d20746865207a65726f2061646460008201527f7265737300000000000000000000000000000000000000000000000000000000602082015250565b60006200233260248362001b99565b91506200233f82620022d4565b604082019050919050565b60006020820190508181036000830152620023658162002323565b9050919050565b7f45524332303a20617070726f766520746f20746865207a65726f20616464726560008201527f7373000000000000000000000000000000000000000000000000000000000000602082015250565b6000620023ca60228362001b99565b9150620023d7826200236c565b604082019050919050565b60006020820190508181036000830152620023fd81620023bb565b9050919050565b7f45524332303a20696e73756666696369656e7420616c6c6f77616e6365000000600082015250565b60006200243c601d8362001b99565b9150620024498262002404565b602082019050919050565b600060208201905081810360008301526200246f816200242d565b9050919050565b7f45524332303a207472616e736665722066726f6d20746865207a65726f20616460008201527f6472657373000000000000000000000000000000000000000000000000000000602082015250565b6000620024d460258362001b99565b9150620024e18262002476565b604082019050919050565b600060208201905081810360008301526200250781620024c5565b9050919050565b7f45524332303a207472616e7366657220746f20746865207a65726f206164647260008201527f6573730000000000000000000000000000000000000000000000000000000000602082015250565b60006200256c60238362001b99565b915062002579826200250e565b604082019050919050565b600060208201905081810360008301526200259f816200255d565b9050919050565b7f45524332303a207472616e7366657220616d6f756e742065786365656473206260008201527f616c616e63650000000000000000000000000000000000000000000000000000602082015250565b60006200260460268362001b99565b91506200261182620025a6565b604082019050919050565b600060208201905081810360008301526200263781620025f5565b9050919050565b600081905092915050565b7f416363657373436f6e74726f6c3a206163636f756e7420000000000000000000600082015250565b6000620026816017836200263e565b91506200268e8262002649565b601782019050919050565b6000620026a68262001b8e565b620026b281856200263e565b9350620026c481856020860162001baa565b80840191505092915050565b7f206973206d697373696e6720726f6c6520000000000000000000000000000000600082015250565b6000620027086011836200263e565b91506200271582620026d0565b601182019050919050565b60006200272d8262002672565b91506200273b828562002699565b91506200274882620026f9565b915062002756828462002699565b91508190509392505050565b7f45524332303a206d696e7420746f20746865207a65726f206164647265737300600082015250565b60006200279a601f8362001b99565b9150620027a78262002762565b602082019050919050565b60006020820190508181036000830152620027cd816200278b565b9050919050565b7f45524332303a206275726e2066726f6d20746865207a65726f2061646472657360008201527f7300000000000000000000000000000000000000000000000000000000000000602082015250565b60006200283260218362001b99565b91506200283f82620027d4565b604082019050919050565b60006020820190508181036000830152620028658162002823565b9050919050565b7f45524332303a206275726e20616d6f756e7420657863656564732062616c616e60008201527f6365000000000000000000000000000000000000000000000000000000000000602082015250565b6000620028ca60228362001b99565b9150620028d7826200286c565b604082019050919050565b60006020820190508181036000830152620028fd81620028bb565b9050919050565b6000620029118262001cbb565b91506200291e8362001cbb565b9250828210156200293457620029336200213d565b5b828203905092915050565b60006200294c8262001cbb565b9150620029598362001cbb565b9250817fffffffffffffffffffffffffffffffffffffffffffffffffffffffffffffffff04831182151516156200299557620029946200213d565b5b828202905092915050565b7f4e487b7100000000000000000000000000000000000000000000000000000000600052604160045260246000fd5b7f4e487b7100000000000000000000000000000000000000000000000000000000600052603260045260246000fd5b600062002a0b8262001cbb565b91506000820362002a215762002a206200213d565b5b600182039050919050565b7f537472696e67733a20686578206c656e67746820696e73756666696369656e74600082015250565b600062002a6460208362001b99565b915062002a718262002a2c565b602082019050919050565b6000602082019050818103600083015262002a978162002a55565b905091905056fe60e06040523480156200001157600080fd5b5060405162000e8a38038062000e8a8339818101604052810190620000379190620001df565b4281116200007c576040517f08c379a00000000000000000000000000000000000000000000000000000000081526004016200007390620002c2565b60405180910390fd5b8273ffffffffffffffffffffffffffffffffffffffff1660808173ffffffffffffffffffffffffffffffffffffffff16815250508173ffffffffffffffffffffffffffffffffffffffff1660a08173ffffffffffffffffffffffffffffffffffffffff16815250508060c08181525050505050620002e4565b600080fd5b600073ffffffffffffffffffffffffffffffffffffffff82169050919050565b60006200012782620000fa565b9050919050565b60006200013b826200011a565b9050919050565b6200014d816200012e565b81146200015957600080fd5b50565b6000815190506200016d8162000142565b92915050565b6200017e816200011a565b81146200018a57600080fd5b50565b6000815190506200019e8162000173565b92915050565b6000819050919050565b620001b981620001a4565b8114620001c557600080fd5b50565b600081519050620001d981620001ae565b92915050565b600080600060608486031215620001fb57620001fa620000f5565b5b60006200020b868287016200015c565b93505060206200021e868287016200018d565b92505060406200023186828701620001c8565b9150509250925092565b600082825260208201905092915050565b7f546f6b656e54696d656c6f636b3a2072656c656173652074696d65206973206260008201527f65666f72652063757272656e742074696d650000000000000000000000000000602082015250565b6000620002aa6032836200023b565b9150620002b7826200024c565b604082019050919050565b60006020820190508181036000830152620002dd816200029b565b9050919050565b60805160a05160c051610b7762000313600039600061022f0152600060b9015260006102570152610b776000f3fe608060405234801561001057600080fd5b506004361061004c5760003560e01c806338af3eed1461005157806386d1a69f1461006f578063b91d400114610079578063fc0c546a14610097575b600080fd5b6100596100b5565b60405161006691906105bf565b60405180910390f35b6100776100dd565b005b61008161022b565b60405161008e91906105f3565b60405180910390f35b61009f610253565b6040516100ac919061066d565b60405180910390f35b60007f0000000000000000000000000000000000000000000000000000000000000000905090565b6100e561022b565b421015610127576040517f08c379a000000000000000000000000000000000000000000000000000000000815260040161011e9061070b565b60405180910390fd5b6000610131610253565b73ffffffffffffffffffffffffffffffffffffffff166370a08231306040518263ffffffff1660e01b815260040161016991906105bf565b602060405180830381865afa158015610186573d6000803e3d6000fd5b505050506040513d601f19601f820116820180604052508101906101aa919061075c565b9050600081116101ef576040517f08c379a00000000000000000000000000000000000000000000000000000000081526004016101e6906107fb565b60405180910390fd5b6102286101fa6100b5565b82610203610253565b73ffffffffffffffffffffffffffffffffffffffff1661027b9092919063ffffffff16565b50565b60007f0000000000000000000000000000000000000000000000000000000000000000905090565b60007f0000000000000000000000000000000000000000000000000000000000000000905090565b6102fc8363a9059cbb60e01b848460405160240161029a92919061081b565b604051602081830303815290604052907bffffffffffffffffffffffffffffffffffffffffffffffffffffffff19166020820180517bffffffffffffffffffffffffffffffffffffffffffffffffffffffff8381831617835250505050610301565b505050565b6000610363826040518060400160405280602081526020017f5361666545524332303a206c6f772d6c6576656c2063616c6c206661696c65648152508573ffffffffffffffffffffffffffffffffffffffff166103c89092919063ffffffff16565b90506000815111156103c35780806020019051810190610383919061087c565b6103c2576040517f08c379a00000000000000000000000000000000000000000000000000000000081526004016103b99061091b565b60405180910390fd5b5b505050565b60606103d784846000856103e0565b90509392505050565b606082471015610425576040517f08c379a000000000000000000000000000000000000000000000000000000000815260040161041c906109ad565b60405180910390fd5b61042e856104f4565b61046d576040517f08c379a000000000000000000000000000000000000000000000000000000000815260040161046490610a19565b60405180910390fd5b6000808673ffffffffffffffffffffffffffffffffffffffff1685876040516104969190610ab3565b60006040518083038185875af1925050503d80600081146104d3576040519150601f19603f3d011682016040523d82523d6000602084013e6104d8565b606091505b50915091506104e8828286610517565b92505050949350505050565b6000808273ffffffffffffffffffffffffffffffffffffffff163b119050919050565b6060831561052757829050610577565b60008351111561053a5782518084602001fd5b816040517f08c379a000000000000000000000000000000000000000000000000000000000815260040161056e9190610b1f565b60405180910390fd5b9392505050565b600073ffffffffffffffffffffffffffffffffffffffff82169050919050565b60006105a98261057e565b9050919050565b6105b98161059e565b82525050565b60006020820190506105d460008301846105b0565b92915050565b6000819050919050565b6105ed816105da565b82525050565b600060208201905061060860008301846105e4565b92915050565b6000819050919050565b600061063361062e6106298461057e565b61060e565b61057e565b9050919050565b600061064582610618565b9050919050565b60006106578261063a565b9050919050565b6106678161064c565b82525050565b6000602082019050610682600083018461065e565b92915050565b600082825260208201905092915050565b7f546f6b656e54696d656c6f636b3a2063757272656e742074696d65206973206260008201527f65666f72652072656c656173652074696d650000000000000000000000000000602082015250565b60006106f5603283610688565b915061070082610699565b604082019050919050565b60006020820190508181036000830152610724816106e8565b9050919050565b600080fd5b610739816105da565b811461074457600080fd5b50565b60008151905061075681610730565b92915050565b6000602082840312156107725761077161072b565b5b600061078084828501610747565b91505092915050565b7f546f6b656e54696d656c6f636b3a206e6f20746f6b656e7320746f2072656c6560008201527f6173650000000000000000000000000000000000000000000000000000000000602082015250565b60006107e5602383610688565b91506107f082610789565b604082019050919050565b60006020820190508181036000830152610814816107d8565b9050919050565b600060408201905061083060008301856105b0565b61083d60208301846105e4565b9392505050565b60008115159050919050565b61085981610844565b811461086457600080fd5b50565b60008151905061087681610850565b92915050565b6000602082840312156108925761089161072b565b5b60006108a084828501610867565b91505092915050565b7f5361666545524332303a204552433230206f7065726174696f6e20646964206e60008201527f6f74207375636365656400000000000000000000000000000000000000000000602082015250565b6000610905602a83610688565b9150610910826108a9565b604082019050919050565b60006020820190508181036000830152610934816108f8565b9050919050565b7f416464726573733a20696e73756666696369656e742062616c616e636520666f60008201527f722063616c6c0000000000000000000000000000000000000000000000000000602082015250565b6000610997602683610688565b91506109a28261093b565b604082019050919050565b600060208201905081810360008301526109c68161098a565b9050919050565b7f416464726573733a2063616c6c20746f206e6f6e2d636f6e7472616374000000600082015250565b6000610a03601d83610688565b9150610a0e826109cd565b602082019050919050565b60006020820190508181036000830152610a32816109f6565b9050919050565b600081519050919050565b600081905092915050565b60005b83811015610a6d578082015181840152602081019050610a52565b83811115610a7c576000848401525b50505050565b6000610a8d82610a39565b610a978185610a44565b9350610aa7818560208601610a4f565b80840191505092915050565b6000610abf8284610a82565b915081905092915050565b600081519050919050565b6000601f19601f8301169050919050565b6000610af182610aca565b610afb8185610688565b9350610b0b818560208601610a4f565b610b1481610ad5565b840191505092915050565b60006020820190508181036000830152610b398184610ae6565b90509291505056fea264697066735822122039dad01eb42bb3394a58bc9c5f68de0ab7a51594204b1e618936a128e556c4e364736f6c634300080d0033a264697066735822122069674fadbc21dd43e4256bdbc7204b1609f4500bba8324f022e90c940bdab64764736f6c634300080d0033",
  "immutableReferences": {},
  "source": "// SPDX-License-Identifier: MIT\npragma solidity >=0.4.22 <0.9.0;\n\nimport \"../node_modules/@openzeppelin/contracts/access/AccessControl.sol\";\nimport \"../node_modules/@openzeppelin/contracts/access/Ownable.sol\";\nimport \"../node_modules/@openzeppelin/contracts/token/ERC20/utils/TokenTimelock.sol\";\nimport \"../node_modules/@openzeppelin/contracts/token/ERC20/ERC20.sol\";\n\ncontract KigaToken is ERC20, AccessControl { //  \n    bytes32 public constant MINTER_ROLE = keccak256(\"MINTER_ROLE\");\n    bytes32 public constant BURNER_ROLE = keccak256(\"BURNER_ROLE\");\n    uint public INITIAL_SUPPLY = 80000000;\n\n    address minter = msg.sender;\n    address burner = msg.sender;\n\n    constructor() ERC20(\"KigaToken\", \"KGT\") {\n        // _setupRole(MINTER_ROLE, minter);\n        // _setupRole(BURNER_ROLE, burner);\n        _setupRole(DEFAULT_ADMIN_ROLE, msg.sender);\n        _mint(msg.sender, INITIAL_SUPPLY * 10 ** (uint(decimals())));\n    }\n\n    function mint(address _to, uint256 _amount) public onlyRole(MINTER_ROLE) { // onlyRole    require    \n    // function mint(address to, uint256 amount) public {\n        // require(hasRole(MINTER_ROLE, msg.sender), \"Caller is not a minter\");\n        _mint(_to, _amount);\n    }\n\n    function burn(address _from, uint256 _amount) public onlyRole(BURNER_ROLE) {\n    // function burn(address from, uint256 amount) public {\n    //     require(hasRole(BURNER_ROLE, msg.sender), \"Caller is not a burner\");\n        _burn(_from, _amount);\n    }\n\n    function mintTimeLocked(address _to, uint256 _amount, uint256 _releaseTime) public onlyRole(MINTER_ROLE) returns(TokenTimelock) {\n        TokenTimelock timelock = new TokenTimelock(this, _to, _releaseTime);\n        mint(address(timelock), _amount);\n\n        return timelock;\n    }\n}",
  "sourcePath": "/workspace/Class4-Solidity/Class4-Solidity/ERC/2-makeToken/contracts/KigaToken.sol",
  "compiler": {
    "name": "solc",
    "version": "0.8.13+commit.abaa5c0e.Emscripten.clang"
  },
  "schemaVersion": "3.4.7",
  "updatedAt": "2022-04-13T03:12:30.021Z",
  "networkType": "ethereum",
  "devdoc": {
    "kind": "dev",
    "methods": {
      "allowance(address,address)": {
        "details": "See {IERC20-allowance}."
      },
      "approve(address,uint256)": {
        "details": "See {IERC20-approve}. NOTE: If `amount` is the maximum `uint256`, the allowance is not updated on `transferFrom`. This is semantically equivalent to an infinite approval. Requirements: - `spender` cannot be the zero address."
      },
      "balanceOf(address)": {
        "details": "See {IERC20-balanceOf}."
      },
      "decimals()": {
        "details": "Returns the number of decimals used to get its user representation. For example, if `decimals` equals `2`, a balance of `505` tokens should be displayed to a user as `5.05` (`505 / 10 ** 2`). Tokens usually opt for a value of 18, imitating the relationship between Ether and Wei. This is the value {ERC20} uses, unless this function is overridden; NOTE: This information is only used for _display_ purposes: it in no way affects any of the arithmetic of the contract, including {IERC20-balanceOf} and {IERC20-transfer}."
      },
      "decreaseAllowance(address,uint256)": {
        "details": "Atomically decreases the allowance granted to `spender` by the caller. This is an alternative to {approve} that can be used as a mitigation for problems described in {IERC20-approve}. Emits an {Approval} event indicating the updated allowance. Requirements: - `spender` cannot be the zero address. - `spender` must have allowance for the caller of at least `subtractedValue`."
      },
      "getRoleAdmin(bytes32)": {
        "details": "Returns the admin role that controls `role`. See {grantRole} and {revokeRole}. To change a role's admin, use {_setRoleAdmin}."
      },
      "grantRole(bytes32,address)": {
        "details": "Grants `role` to `account`. If `account` had not been already granted `role`, emits a {RoleGranted} event. Requirements: - the caller must have ``role``'s admin role."
      },
      "hasRole(bytes32,address)": {
        "details": "Returns `true` if `account` has been granted `role`."
      },
      "increaseAllowance(address,uint256)": {
        "details": "Atomically increases the allowance granted to `spender` by the caller. This is an alternative to {approve} that can be used as a mitigation for problems described in {IERC20-approve}. Emits an {Approval} event indicating the updated allowance. Requirements: - `spender` cannot be the zero address."
      },
      "name()": {
        "details": "Returns the name of the token."
      },
      "renounceRole(bytes32,address)": {
        "details": "Revokes `role` from the calling account. Roles are often managed via {grantRole} and {revokeRole}: this function's purpose is to provide a mechanism for accounts to lose their privileges if they are compromised (such as when a trusted device is misplaced). If the calling account had been revoked `role`, emits a {RoleRevoked} event. Requirements: - the caller must be `account`."
      },
      "revokeRole(bytes32,address)": {
        "details": "Revokes `role` from `account`. If `account` had been granted `role`, emits a {RoleRevoked} event. Requirements: - the caller must have ``role``'s admin role."
      },
      "supportsInterface(bytes4)": {
        "details": "See {IERC165-supportsInterface}."
      },
      "symbol()": {
        "details": "Returns the symbol of the token, usually a shorter version of the name."
      },
      "totalSupply()": {
        "details": "See {IERC20-totalSupply}."
      },
      "transfer(address,uint256)": {
        "details": "See {IERC20-transfer}. Requirements: - `to` cannot be the zero address. - the caller must have a balance of at least `amount`."
      },
      "transferFrom(address,address,uint256)": {
        "details": "See {IERC20-transferFrom}. Emits an {Approval} event indicating the updated allowance. This is not required by the EIP. See the note at the beginning of {ERC20}. NOTE: Does not update the allowance if the current allowance is the maximum `uint256`. Requirements: - `from` and `to` cannot be the zero address. - `from` must have a balance of at least `amount`. - the caller must have allowance for ``from``'s tokens of at least `amount`."
      }
    },
    "version": 1
  },
  "userdoc": {
    "kind": "user",
    "methods": {},
    "version": 1
  }
}